{
  "contractName": "RecurringLottery",
  "abi": [
    {
      "constant": true,
      "inputs": [],
      "name": "duration",
      "outputs": [
        {
          "name": "",
          "type": "uint256"
        }
      ],
      "payable": false,
      "stateMutability": "view",
      "type": "function"
    },
    {
      "constant": true,
      "inputs": [],
      "name": "round",
      "outputs": [
        {
          "name": "",
          "type": "uint256"
        }
      ],
      "payable": false,
      "stateMutability": "view",
      "type": "function"
    },
    {
      "constant": true,
      "inputs": [],
      "name": "TICKET_PRICE",
      "outputs": [
        {
          "name": "",
          "type": "uint256"
        }
      ],
      "payable": false,
      "stateMutability": "view",
      "type": "function"
    },
    {
      "constant": true,
      "inputs": [
        {
          "name": "",
          "type": "address"
        }
      ],
      "name": "balances",
      "outputs": [
        {
          "name": "",
          "type": "uint256"
        }
      ],
      "payable": false,
      "stateMutability": "view",
      "type": "function"
    },
    {
      "constant": true,
      "inputs": [
        {
          "name": "",
          "type": "uint256"
        }
      ],
      "name": "rounds",
      "outputs": [
        {
          "name": "endBlock",
          "type": "uint256"
        },
        {
          "name": "drawBlock",
          "type": "uint256"
        },
        {
          "name": "totalQuantity",
          "type": "uint256"
        },
        {
          "name": "winner",
          "type": "address"
        }
      ],
      "payable": false,
      "stateMutability": "view",
      "type": "function"
    },
    {
      "inputs": [
        {
          "name": "_duration",
          "type": "uint256"
        }
      ],
      "payable": false,
      "stateMutability": "nonpayable",
      "type": "constructor"
    },
    {
      "payable": true,
      "stateMutability": "payable",
      "type": "fallback"
    },
    {
      "constant": false,
      "inputs": [],
      "name": "buy",
      "outputs": [],
      "payable": true,
      "stateMutability": "payable",
      "type": "function"
    },
    {
      "constant": false,
      "inputs": [
        {
          "name": "roundNumber",
          "type": "uint256"
        }
      ],
      "name": "drawWinner",
      "outputs": [],
      "payable": false,
      "stateMutability": "nonpayable",
      "type": "function"
    },
    {
      "constant": false,
      "inputs": [],
      "name": "withdraw",
      "outputs": [],
      "payable": false,
      "stateMutability": "nonpayable",
      "type": "function"
    },
    {
      "constant": false,
      "inputs": [
        {
          "name": "_round",
          "type": "uint256"
        }
      ],
      "name": "deleteRound",
      "outputs": [],
      "payable": false,
      "stateMutability": "nonpayable",
      "type": "function"
    }
  ],
  "bytecode": "0x608060405234801561001057600080fd5b50604051602080610a7783398101806040528101908080519060200190929190505050806002819055506001808190555060025443016000806001548152602001908152602001600020600001819055506005600254430101600080600154815260200190815260200160002060010181905550506109e3806100946000396000f300608060405260043610610099576000357c0100000000000000000000000000000000000000000000000000000000900463ffffffff1680630fb5a6b4146100a3578063146ca531146100ce5780631a95f15f146100f957806327e235e3146101245780633b9c0fdc1461017b5780633ccfd60b146101a857806360b2a56a146101bf5780638c65c81f146101ec578063a6f2ae3a1461026e575b6100a1610278565b005b3480156100af57600080fd5b506100b8610418565b6040518082815260200191505060405180910390f35b3480156100da57600080fd5b506100e361041e565b6040518082815260200191505060405180910390f35b34801561010557600080fd5b5061010e610424565b6040518082815260200191505060405180910390f35b34801561013057600080fd5b50610165600480360381019080803573ffffffffffffffffffffffffffffffffffffffff16906020019092919050505061042f565b6040518082815260200191505060405180910390f35b34801561018757600080fd5b506101a660048036038101908080359060200190929190505050610447565b005b3480156101b457600080fd5b506101bd610545565b005b3480156101cb57600080fd5b506101ea60048036038101908080359060200190929190505050610618565b005b3480156101f857600080fd5b50610217600480360381019080803590602001909291905050506108c5565b604051808581526020018481526020018381526020018273ffffffffffffffffffffffffffffffffffffffff1673ffffffffffffffffffffffffffffffffffffffff16815260200194505050505060405180910390f35b610276610278565b005b6000610282610915565b600066038d7ea4c680003481151561029657fe5b061415156102a357600080fd5b6000806001548152602001908152602001600020600001544311156103165760018060008282540192505081905550600254430160008060015481526020019081526020016000206000018190555060056002544301016000806001548152602001908152602001600020600101819055505b66038d7ea4c680003481151561032857fe5b04915060408051908101604052803373ffffffffffffffffffffffffffffffffffffffff1681526020018381525090506000806001548152602001908152602001600020600201819080600181540180825580915050906001820390600052602060002090600202016000909192909190915060008201518160000160006101000a81548173ffffffffffffffffffffffffffffffffffffffff021916908373ffffffffffffffffffffffffffffffffffffffff16021790555060208201518160010155505050816000806001548152602001908152602001600020600301600082825401925050819055505050565b60025481565b60015481565b66038d7ea4c6800081565b60036020528060005260406000206000915090505481565b606460008083815260200190815260200160002060010154014311151561046d57600080fd5b600073ffffffffffffffffffffffffffffffffffffffff1660008083815260200190815260200160002060040160009054906101000a900473ffffffffffffffffffffffffffffffffffffffff1673ffffffffffffffffffffffffffffffffffffffff16141515156104de57600080fd5b60008082815260200190815260200160002060008082016000905560018201600090556002820160006105119190610945565b60038201600090556004820160006101000a81549073ffffffffffffffffffffffffffffffffffffffff0219169055505050565b6000600360003373ffffffffffffffffffffffffffffffffffffffff1673ffffffffffffffffffffffffffffffffffffffff1681526020019081526020016000205490506000600360003373ffffffffffffffffffffffffffffffffffffffff1673ffffffffffffffffffffffffffffffffffffffff168152602001908152602001600020819055503373ffffffffffffffffffffffffffffffffffffffff166108fc829081150290604051600060405180830381858888f19350505050158015610614573d6000803e3d6000fd5b5050565b60008060008060008060008781526020019081526020016000209450600073ffffffffffffffffffffffffffffffffffffffff168560040160009054906101000a900473ffffffffffffffffffffffffffffffffffffffff1673ffffffffffffffffffffffffffffffffffffffff1614151561069357600080fd5b8460010154431115156106a557600080fd5b600085600201805490501115156106bb57600080fd5b8460010154406040516020018082600019166000191681526020019150506040516020818303038152906040526040518082805190602001908083835b60208310151561071d57805182526020820191506020810190506020830392506106f8565b6001836020036101000a038019825116818451168082178552505050505050905001915050604051809103902093508460030154846001900481151561075f57fe5b069250600091505b846002018054905082101561083f57846002018281548110151561078757fe5b90600052602060002090600202016001015490508281111561082d5784600201828154811015156107b457fe5b906000526020600020906002020160000160009054906101000a900473ffffffffffffffffffffffffffffffffffffffff168560040160006101000a81548173ffffffffffffffffffffffffffffffffffffffff021916908373ffffffffffffffffffffffffffffffffffffffff16021790555061083f565b80830392508180600101925050610767565b846003015466038d7ea4c6800002600360008760040160009054906101000a900473ffffffffffffffffffffffffffffffffffffffff1673ffffffffffffffffffffffffffffffffffffffff1673ffffffffffffffffffffffffffffffffffffffff16815260200190815260200160002060008282540192505081905550505050505050565b60006020528060005260406000206000915090508060000154908060010154908060030154908060040160009054906101000a900473ffffffffffffffffffffffffffffffffffffffff16905084565b6040805190810160405280600073ffffffffffffffffffffffffffffffffffffffff168152602001600081525090565b50805460008255600202906000526020600020908101906109669190610969565b50565b6109b491905b808211156109b057600080820160006101000a81549073ffffffffffffffffffffffffffffffffffffffff021916905560018201600090555060020161096f565b5090565b905600a165627a7a723058200c8a9a66cdb8938250604392b362a169c5a1ee091c868dc711442ca94cb567a70029",
  "source": "pragma solidity ^0.4.23;\n\ncontract RecurringLottery {\n    struct Round {\n        uint endBlock;\n        uint drawBlock;\n        Entry[] entries;\n        uint totalQuantity;\n        address winner;\n    }\n    struct Entry {\n        address buyer;\n        uint quantity;\n    }\n\n    uint constant public TICKET_PRICE = 1e15;\n\n    mapping(uint => Round) public rounds;\n    uint public round;\n    uint public duration;\n    mapping (address => uint) public balances;\n\n    // duration is in blocks. 1 day = ~5500 blocks\n    constructor (uint _duration) public {\n        duration = _duration;\n        round = 1;\n        rounds[round].endBlock = block.number + duration;\n        rounds[round].drawBlock = block.number + duration + 5;\n    }\n\n    function buy () payable public {\n        require(msg.value % TICKET_PRICE == 0);\n\n        if (block.number > rounds[round].endBlock) {\n            round += 1;\n            rounds[round].endBlock = block.number + duration;\n            rounds[round].drawBlock = block.number + duration + 5;\n        }\n\n        uint quantity = msg.value / TICKET_PRICE;\n        Entry memory entry = Entry(msg.sender, quantity);\n        rounds[round].entries.push(entry);\n        rounds[round].totalQuantity += quantity;\n    }\n\n    function drawWinner (uint roundNumber) public {\n        Round storage drawing = rounds[roundNumber];\n        require(drawing.winner ==  address(0));\n        require(block.number > drawing.drawBlock);\n        require(drawing.entries.length > 0);\n\n        // pick winner\n        bytes32 rand = keccak256(\n            abi.encode(blockhash(drawing.drawBlock))\n        );\n        uint counter = uint(rand) % drawing.totalQuantity;\n        for (uint i=0; i < drawing.entries.length; i++) {\n            uint quantity = drawing.entries[i].quantity;\n            if (quantity > counter) {\n                drawing.winner = drawing.entries[i].buyer;\n                break;\n            }\n            else\n                counter -= quantity;\n        }\n        \n        balances[drawing.winner] += TICKET_PRICE * drawing.totalQuantity;\n    }\n\n    function withdraw () public {\n        uint amount = balances[msg.sender];\n        balances[msg.sender] = 0;\n        msg.sender.transfer(amount);\n    }\n\n    function deleteRound (uint _round) public {\n        require(block.number > rounds[_round].drawBlock + 100);\n        require(rounds[_round].winner != address(0));\n        delete rounds[_round];\n    }\n\n    function () payable external {\n        buy();\n    }\n}",
  "sourcePath": "/home/ntphuong/Desktop/tomochain/RecurringLottery/contracts/RecurringLottery.sol",
  "compiler": {
    "name": "solc",
    "version": "0.4.24+commit.e67f0147.Emscripten.clang"
  },
  "schemaVersion": "2.0.1",
  "updatedAt": "2018-11-29T03:58:13.357Z"
}